:020000040800F2
:1000000000280020810D0008D10D0008D10D000846
:10001000D10D0008D10D0008D10D0008000000002E
:10002000000000000000000000000000D10D0008EA
:10003000D10D000800000000D10D0008D10D00080E
:10004000D10D0008D10D0008D10D0008D10D000818
:10005000D10D0008D10D00085508000879080008E6
:100060009D080008C1080008E5080008D10D000837
:10007000D10D0008D10D0008D10D0008D10D0008E8
:10008000D10D0008D10D0008D10D0008D10D0008D8
:10009000D10D0008D10D0008D10D00080909000894
:1000A000D10D0008D10D0008D10D0008D10D0008B8
:1000B000D10D0008D10D0008D10D0008D10D0008A8
:1000C000D10D0008D10D0008D10D0008D10D000898
:1000D000D10D0008D10D0008D10D0008D10D000888
:1000E000B1090008D10D000800000000D10D000882
:1000F000D10D0008D10D0008D10D0008D10D000868
:10010000D10D0008D10D0008D10D0008D10D000857
:10011000D10D0008D10D0008D10D0008D10D000847
:10012000D10D0008D10D0008D10D0008D10D000837
:1001300010B5054C237833B9044B13B10448AFF321
:1001400000800123237010BD00000020000000008B
:100150001C0E000808B5034B1BB103490348AFF35D
:10016000008008BD00000000040000201C0E0008F4
:1001700080B485B000AF78600023FB600BE0002303
:10018000BB6002E0BB680133BB60BB68FE2BF9D9E2
:10019000FB680133FB60FA687B689A42EFD300BFCB
:1001A0001437BD4680BC704780B500AF01224FF4C4
:1001B0008061074800F04CFD3220FFF7D9FF002294
:1001C0004FF48061024800F043FD00BF80BD00BFD6
:1001D0000008014080B500AF1420FFF7C9FF1F4B96
:1001E0004FF400721A801D4B04229A701B4B01229F
:1001F000DA701A491A4800F0A0FC184B4FF48072CC
:100200001A80164B04229A70144B0122DA7013499B
:10021000134800F092FC114B4FF480621A800F4B90
:1002200004229A700D4B0122DA700C490C4800F040
:1002300084FC0F20FFF79CFF00F0D0F800F012F8CC
:10024000382000F017F8062000F014F8802000F0A5
:1002500011F80F2000F00EF800BF80BD2400002030
:100260000008014080B500AF012000F003F800BF96
:1002700080BD000080B582B000AF0346FB7113481B
:1002800000F0DAFC03461BB223F0FF031AB2FB793D
:100290001BB213431BB29BB219460C4800F0EFFC93
:1002A00000224FF48071094800F0D2FC00224FF484
:1002B0000071064800F0CCFC0120FFF759FFFFF762
:1002C00073FF00BF0837BD4680BD00BF0008014076
:1002D00080B582B000AF0346FB71134800F0ACFC60
:1002E00003461BB223F0FF031AB2FB791BB2134380
:1002F0001BB29BB219460C4800F0C1FC01224FF41E
:100300008071094800F0A4FC00224FF400710648F7
:1003100000F09EFC0120FFF72BFFFFF745FF00BF19
:100320000837BD4680BD00BF0008014080B582B0DF
:1003300000AF03460A46FB711346BB71FB79002BE5
:1003400009D1BB790F2B12D8BB79803BDBB21846A1
:10035000FFF790FF0BE0FB79012B08D1BB790F2B46
:1003600005D8BB79403BDBB21846FFF783FF00BFDF
:100370000837BD4680BD000080B582B000AF786010
:1003800021E07B685A1C7A601B781846FFF7A0FFB3
:10039000114B1B680133104A13600F4B1B68102B65
:1003A00004D100210120FFF7C1FF0CE00A4B1B68BC
:1003B000202B08D1FFF756FF00210020FFF7B6FFE2
:1003C000054B00221A607B681B78002BD9D100BF37
:1003D0000837BD4680BD00BF1C00002080B500AFBF
:1003E000344B80221A80334B04229A70314B012205
:1003F000DA703049304800F0A0FB2E4B40221A80C2
:100400002C4B04229A702B4B0122DA7029492A487E
:1004100000F093FB274B20221A80264B04229A706F
:10042000244B0122DA702349234800F086FB214B3C
:1004300010221A801F4B04229A701E4B0122DA7080
:100440001C491D4800F079FB1A4B08221A80194BF1
:1004500004229A70174B0122DA701649164800F0F0
:100460006CFB144B04221A80124B04229A70114B1D
:100470000122DA700F49104800F05FFB0D4B022299
:100480001A800C4B04229A700A4B0122DA70094937
:10049000094800F052FB074B01221A80054B042249
:1004A0009A70044B0122DA700249034800F045FBC0
:1004B00000BF80BD240000200008014080B483B04C
:1004C00000AF0346FB80FB880F2B54D801A252F8E3
:1004D00023F000BF150500082305000831050008BA
:1004E0003F0500084D0500085B0500085B05000896
:1004F0005B0500085B0500085B050008690500084E
:100500006905000869050008690500086905000813
:10051000690500081A4B1B68194A43F04003136031
:1005200029E0174B1B68164A43F08003136022E052
:10053000134B1B68124A43F4807313601BE0104B8B
:100540001B680F4A43F40073136014E00C4B1B68E4
:100550000B4A43F4806313600DE0094B1B68084AA3
:1005600043F40003136006E0064B1B68054A43F49E
:100570008073136000BF00BF0C37BD4680BC70475E
:1005800000E100E004E100E080B483B000AF034686
:10059000FB80FB880F2B54D801A252F823F000BF38
:1005A000E1050008EF050008FD0500080B0600083E
:1005B0001906000827060008270600082706000875
:1005C000270600082706000835060008350600083B
:1005D000350600083506000835060008350600080F
:1005E0001A4B1B68194A43F04003136029E0174B6C
:1005F0001B68164A43F08003136022E0134B1B680C
:10060000124A43F4807313601BE0104B1B680F4ABF
:1006100043F40073136014E00C4B1B680B4A43F463
:10062000806313600DE0094B1B68084A43F4000324
:10063000136006E0064B1B68054A43F480731360A1
:1006400000BF00BF0C37BD4680BC704780E100E0B2
:1006500084E100E080B584B000AF78607B681B89DE
:100660003B810123BB727B685B6807F1080211467E
:10067000184600F062FA7B681B889B089BB2FB73EC
:100680007B681B88DBB203F00303DBB29B00BB7308
:10069000634AFB7B023352F82320BB7B0F2101FA14
:1006A00003F3DB4318465E49FB7B0240023341F80B
:1006B00023205B4AFB7B023352F823207B685B6874
:1006C00058498B4216D07B685B6857498B420FD0E4
:1006D0007B685B6855498B4208D07B685B685449EE
:1006E0008B4201D1032306E0002304E0022302E051
:1006F000012300E00023B97B8B4018464849FB7B6F
:100700000243023341F823204A4B9B687A681288DF
:10071000114601228A40D2431146464A0B4093605B
:10072000444BDB687A681288114601228A40D24322
:100730001146404A0B40D3607B681B7B012B0FD0D6
:10074000022B19D0002B2ED13A4B9B687A68128865
:10075000114601228A401146364A0B4393602DE030
:10076000344BDB687A681288114601228A401146B0
:10077000304A0B43D36021E02E4B9B687A68128885
:10078000114601228A4011462A4A0B439360294BA5
:10079000DB687A681288114601228A401146254A90
:1007A0000B43D3600AE0234B9B687A68128811469A
:1007B00001228A4011461F4A0B4393607B681B88C5
:1007C00019467B681B691C4A42F821307B685B7BB9
:1007D000012B10D1174B1B687A6812881146012231
:1007E0008A401146134A0B4313607B681B881846E6
:1007F000FFF764FE10E00F4B1B687A681288114601
:1008000001228A40D24311460A4A0B4013607B689A
:100810001B881846FFF7B8FE00BF1037BD4680BDE5
:100820000000014000080140000C014000100140A0
:1008300000140140000401402800002080B582B06F
:1008400000AF78607868FFF705FF00BF0837BD4646
:1008500080BD000080B500AF054B5B69044A43F0E2
:1008600001035361034B1B68984700BF80BD00BF65
:10087000000401402800002080B500AF054B5B69F3
:10088000044A43F002035361034B5B68984700BF7F
:1008900080BD00BF000401402800002080B500AFEB
:1008A000054B5B69044A43F004035361034B9B68A7
:1008B000984700BF80BD00BF000401402800002011
:1008C00080B500AF054B5B69044A43F008035361F0
:1008D000034BDB68984700BF80BD00BF00040140A8
:1008E0002800002080B500AF054B5B69044A43F047
:1008F00010035361034B1B69984700BF80BD00BFC5
:10090000000401402800002080B500AF264B5B6941
:1009100003F02003002B08D0234B5B69224A43F0ED
:1009200020035361214B5B6998471F4B5B6903F0C0
:100930004003002B08D01C4B5B691B4A43F040036B
:1009400053611A4B9B699847174B5B6903F080030F
:10095000002B08D0144B5B69134A43F080035361AA
:10096000124BDB699847104B5B6903F48073002BD3
:1009700008D00D4B5B690C4A43F4807353610B4BF9
:100980001B6A9847084B5B6903F40073002B08D07F
:10099000054B5B69044A43F400735361034B5B6A84
:1009A000984700BF80BD00BF000401402800002020
:1009B00080B500AF2D4B5B6903F48063002B08D03A
:1009C0002A4B5B69294A43F480635361284B9B6A35
:1009D0009847264B5B6903F40063002B08D0234B38
:1009E0005B69224A43F400635361214BDB6A9847F9
:1009F0001E4B5B6903F48053002B08D01B4B5B69D3
:100A00001A4A43F480535361194B1B6B9847174B99
:100A10005B6903F40053002B08D0144B5B69134A45
:100A200043F400535361124B5B6B98470F4B5B6968
:100A300003F48043002B08D00C4B5B690B4A43F452
:100A4000804353610A4B9B6B9847084B5B6903F4E7
:100A50000043002B08D0054B5B69044A43F4004374
:100A60005361034BDB6B984700BF80BD000401401E
:100A70002800002080B483B000AF0346FB80FB88D1
:100A8000802B42D0802B11DC082B36D0082B06DCC3
:100A9000022B2ED0042B2ED0012B28D047E0202B68
:100AA0002FD0402B2FD0102B29D040E0B3F5006F72
:100AB00033D0B3F5006F09DCB3F5007F29D0B3F56F
:100AC000806F28D0B3F5807F21D030E0B3F5005F90
:100AD00027D0B3F5005F03DCB3F5805F1FD026E0BD
:100AE000B3F5804F1FD0B3F5004F1ED01FE0002399
:100AF0001EE004231CE008231AE00C2318E0102356
:100B000016E0142314E0182312E01C2310E0002345
:100B10000EE004230CE008230AE00C2308E0102375
:100B200006E0142304E0182302E01C2300E0012364
:100B300018460C37BD4680BC704790B585B000AFF5
:100B4000786039600023BB600023FB733B681B881F
:100B5000802B02D97B68043300E07B68BB603B6874
:100B60001B881846FFF786FF03461A460F2393405B
:100B7000DA43BB681B681A40BB681A603B689B7805
:100B8000072B0BD03B689B78062B07D03B689B78E4
:100B9000052B03D03B689B78042B0ED13B689B78D8
:100BA000043B9B005AB23B68DB785BB213435BB2F9
:100BB000DBB203F00F03FB732CE03B689B78012B47
:100BC00003D03B689B78002B07D13B689B789B0048
:100BD000DBB203F00F03FB731CE03B689B78082B30
:100BE00002D10423FB7315E00823FB733B689B7859
:100BF000022B07D17B68DB683A6812881A437B684E
:100C0000DA6007E07B68DB683A681288D2431A40F2
:100C10007B68DA60FC7B3B681B881846FFF72AFF7D
:100C2000034604FA03F2BB681B681A43BB681A60E8
:100C300000BF1437BD4690BD80B483B000AF78606C
:100C40007B689B689BB218460C37BD4680BC7047DA
:100C500080B483B000AF78600B467B8013467B7016
:100C60007B78002B03D07A887B681A6102E07A884F
:100C70007B685A6100BF0C37BD4680BC704780B4AA
:100C800083B000AF78600B467B807A887B68DA603F
:100C900000BF0C37BD4680BC7047000080B586B0F1
:100CA00000AF00F041F8FFF7DDFA0E4A3B1D07CA1E
:100CB00083E8070000233B740B4B7B6101237B74AB
:100CC0003B1D1846FFF7BAFD084B01221A60074B7F
:100CD0001B68002BFBD0FFF7C5FA044B00221A60FB
:100CE000F5E700BF340E00085D0D0008200000206D
:100CF00080B485B000AF78600023FB600BE0002378
:100D0000BB6002E0BB680133BB60BB68FE2BF9D956
:100D1000FB680133FB60FA687B689A42EFD300BF3F
:100D20001437BD4680BC704780B500AF0A4B9B6945
:100D3000094A43F004039361074B9B69064A43F059
:100D400008039361044B9B69034A43F001039361D9
:100D5000FFF740FA00BF80BD0010024080B500AF31
:100D6000054B01221A600548FFF706FB4FF47A7025
:100D7000FFF7BEFF00BF80BD20000020400E00082E
:100D80000D488546AFF300800C480D490D4A0023FD
:100D900002E0D458C4500433C4188C42F9D30A4A30
:100DA0000A4C002301E013600432A242FBD300F09E
:100DB00011F8FFF773FFFEE7002800200000002075
:100DC00000000020640E00080000002064000020E5
:100DD000FEE7000070B500250C4E0D4CA41BA410BE
:100DE000A54209D100F01AF800250A4E0A4CA41BAE
:100DF000A410A54205D170BD56F82530984701359D
:100E0000EEE756F8253098470135F2E75C0E00080A
:100E10005C0E00085C0E0008600E0008F8B500BF0C
:100E2000F8BC08BC9E467047F8B500BFF8BC08BCCB
:040E30009E46704723
:100E340009000000000C0140000217004952512033
:100E44004558544939206861732068617070656E33
:080E54006564203A290000004A
:040E5C005501000834
:040E60003101000854
:0400000508000D8161
:00000001FF
