:100000000C942A000C943C000C943C000C943C0092
:100010000C943C000C943C000C943C000C943C0070
:100020000C943C000C943C000C943C000C943C0060
:100030000C943C000C943C000C943C000C943C0050
:100040000C943C000C943C000C943C000C943C0040
:100050000C943C0011241FBECFE5D8E0DEBFCDBF1D
:1000600020E0A0E6B0E001C01D92A836B207E1F79B
:100070000E94CE000C94DB000C9400008FEF8ABB32
:100080008BBB08958091640090916500A0916600FB
:10009000B0916700892B8A2B8B2B09F046C0809189
:1000A000600090916100A0916200B091630088307F
:1000B0009105A105B105C4F041E050E060E070E0B9
:1000C00040936400509365006093660070936700EE
:1000D0000197A109B1098093600090936100A093FA
:1000E0006200B09363000895AC01BD014F5F5F4FA4
:1000F0006F4F7F4F409360005093610060936200A8
:100100007093630021E030E0A90102C0440F551F45
:100110008A95E2F7CA019BB389278BBB8FE493ECE6
:100120000197F1F700C000000895409160005091E0
:100130006100609162007091630077238CF41092EB
:1001400060001092610010926200109263001092A1
:100150006400109265001092660010926700089586
:10016000DB01CA010197A109B10980936000909356
:100170006100A0936200B093630081E090E002C050
:10018000880F991F4A95E2F79BB389278BBB8FE4B1
:1001900093EC0197F1F700C0000008950E943E0023
:1001A000999BFECF0E9442008FE493EC0197F1F7F8
:0A01B00000C00000F5CFF894FFCF67
:00000001FF
