:020000040800F2
:1000000000280020A90C0008F90C0008F90C0008D1
:10001000F90C0008F90C0008F90C000800000000B9
:10002000000000000000000000000000F90C0008C3
:10003000F90C000800000000F90C0008F90C000899
:10004000F90C0008F90C0008F90C0008F90C00087C
:10005000F90C0008F90C0008F90C0008F90C00086C
:10006000F90C0008F90C0008F90C0008F90C00085C
:10007000F90C0008F90C0008F90C0008F90C00084C
:10008000F90C0008F90C0008F90C0008F90C00083C
:10009000F90C0008F90C0008F90C0008F90C00082C
:1000A000F90C0008F90C0008F90C0008F90C00081C
:1000B000F90C0008F90C0008F90C0008F90C00080C
:1000C000F90C0008F90C0008F90C0008F90C0008FC
:1000D000F90C0008F90C0008F90C0008F90C0008EC
:1000E000F90C0008F90C000800000000F90C0008E9
:1000F000F90C0008F90C0008F90C0008F90C0008CC
:10010000F90C0008F90C0008F90C0008F90C0008BB
:10011000F90C0008F90C0008F90C0008F90C0008AB
:10012000F90C0008F90C0008F90C0008F90C00089B
:1001300010B5054C237833B9044B13B10448AFF321
:1001400000800123237010BD20000020000000006B
:10015000440D000808B5034B1BB103490348AFF336
:10016000008008BD0000000024000020440D0008AD
:1001700080B500AF3D4B01221A803C4B04229A709F
:100180003A4B0122DA703949394800F0C6FB374B47
:1001900002221A80354B04229A70344B0122DA7005
:1001A0003249334800F0B9FB304B08221A802F4BFC
:1001B00004229A702D4B0122DA702C492C4800F051
:1001C000ACFB2A4B10221A80284B04229A70274B32
:1001D0000122DA702549264800F09FFB234B20229C
:1001E0001A80224B04229A70204B0122DA701F4998
:1001F0001F4800F092FB1D4B40221A801B4B04222B
:100200009A701A4B0122DA701849194800F085FBE0
:10021000164B80221A80154B04229A70134B012230
:10022000DA701249124800F078FB104B4FF48072DC
:100230001A800E4B04229A700C4B0122DA700B4983
:100240000B4800F06AFB0A4800F0FAFB034643F053
:10025000FF039BB21946064800F015FC01224FF43B
:100260008071034800F0F8FB00BF80BD4000002013
:10027000000C014080B582B000AF00237B60AAE093
:1002800001222021584800F0E7FB01224021564876
:1002900000F0E2FB01228021534800F0DDFB012247
:1002A0004FF48071504800F0D7FB504A7B6852F8F9
:1002B00023309BB2002219464B4800F0CDFB0023AF
:1002C0003B6081E04A4A3B6852F823309BB21946B2
:1002D000454800F0A1FB0346002B72D100BF444A01
:1002E0003B6852F823309BB219463F4800F094FB1C
:1002F0000346002BF3D07B68032B62D801A252F88F
:1003000023F000BF150300083D0300086503000843
:100310008D0300083B68002B01D1372360E03B6868
:10032000012B01D134235BE03B68022B01D1312347
:1003300056E03B68032B3DD1212351E03B68002B65
:1003400001D138234CE03B68012B01D1352347E034
:100350003B68022B01D1322342E03B68032B2BD1B7
:1003600030233DE03B68002B01D1392338E03B6866
:10037000012B01D1362333E03B68022B01D133231B
:100380002EE03B68032B19D13D2329E03B68002B6D
:1003900001D12F2324E03B68012B01D12A231FE048
:1003A0003B68022B01D12D231AE03B68032B07D1B8
:1003B0002B2315E000BF04E000BF02E000BF00E017
:1003C00000BF3B6801333B603B68032B7FF77AAF8C
:1003D0007B6801337B607B68032B7FF751AF4E2333
:1003E00018460837BD4680BD000C014010000020B3
:1003F0000000002080B485B000AF78600023FB606F
:100400000BE00023BB6002E0BB680133BB60BB684C
:10041000FE2BF9D9FB680133FB60FA687B689A42CE
:10042000EFD300BF1437BD4680BC704780B500AF26
:1004300001224FF48061074800F00EFB3220FFF7E5
:10044000D9FF00224FF48061024800F005FB00BF95
:1004500080BD00BF0008014080B500AF1420FFF749
:10046000C9FF00F011F9274B4FF400721A80254B99
:1004700004229A70234B0122DA702249224800F0AC
:100480004CFA204B4FF480721A801E4B04229A7053
:100490001C4B0122DA701B491B4800F03EFA194B35
:1004A0004FF480621A80174B04229A70154B012278
:1004B000DA701449144800F030FA00224FF4007149
:1004C000114800F0C9FA00224FF480710E4800F084
:1004D000C3FA00224FF480610B4800F0BDFA00F02F
:1004E00049F90F20FFF786FF00F010F8062000F012
:1004F00015F8802000F012F80F2000F00FF800BF70
:1005000080BD00BF400000200008014080B500AF62
:10051000012000F003F800BF80BD000080B582B06C
:1005200000AF0346FB7100F0AFF8114800F088FA05
:1005300003461BB223F0FF031AB2FB791BB213432D
:100540001BB29BB219460A4800F09DFA00224FF4F4
:100550008071074800F080FA00224FF400710448CF
:1005600000F07AFAFFF762FF00BF0837BD4680BD92
:100570000008014080B582B000AF0346FB7100F077
:1005800083F801224FF48071124800F065FA114897
:1005900000F056FA03461BB223F0FF031AB2FB79B0
:1005A0001BB213431BB29BB219460A4800F06BFA08
:1005B00001224FF48071074800F04EFA00224FF4F8
:1005C0000071044800F048FAFFF730FF00BF083719
:1005D000BD4680BD0008014080B582B000AF034633
:1005E0000A46FB711346BB71FB79002B09D1BB791D
:1005F0000F2B12D8BB79803BDBB21846FFF78EFF7A
:100600000BE0FB79012B08D1BB790F2B05D8BB7907
:10061000403BDBB21846FFF781FF00BF0837BD46FD
:1006200080BD000080B582B000AF786021E07B68BB
:100630005A1C7A601B781846FFF79CFF114B1B6809
:100640000133104A13600F4B1B68102B04D100219B
:100650000120FFF7C1FF0CE00A4B1B68202B08D1DB
:10066000FFF754FF00210020FFF7B6FF054B0022E3
:100670001A607B681B78002BD9D100BF0837BD46B4
:1006800080BD00BF3C00002080B500AF00F01AF82C
:1006900001224FF400710A4800F0DEF900224FF405
:1006A0008071074800F0D8F9FFF7C0FE00F062F84B
:1006B00000224FF40071024800F0CEF900BF80BD67
:1006C0000008014080B500AF284B10221A80274B4C
:1006D00001229A702549264800F01FF9234B202259
:1006E0001A80224B01229A702049214800F015F906
:1006F0001E4B40221A801D4B01229A701B491C4838
:1007000000F00BF9194B80221A80184B01229A70C5
:100710001649174800F001F9144B08221A80134BB0
:1007200001229A701149124800F0F7F80F4B042289
:100730001A800E4B01229A700C490D4800F0EDF81A
:100740000A4B02221A80094B01229A700749084875
:1007500000F0E3F8054B01221A80044B01229A7045
:100760000249034800F0D9F800BF80BD40000020D6
:100770000008014080B500AF344B80221A80334B13
:1007800004229A70314B0122DA703049304800F06F
:10079000C4F82E4B40221A802C4B04229A702B4B0B
:1007A0000122DA7029492A4800F0B7F8274B2022A5
:1007B0001A80264B04229A70244B0122DA702349B6
:1007C000234800F0AAF8214B10221A801F4B042264
:1007D0009A701E4B0122DA701C491D4800F09DF8EA
:1007E0001A4B08221A80194B04229A70174B0122C7
:1007F000DA701649164800F090F8144B04221A805B
:10080000124B04229A70114B0122DA700F491048E2
:1008100000F083F80D4B02221A800C4B04229A70D0
:100820000A4B0122DA700949094800F076F8074BB3
:1008300001221A80054B04229A70044B0122DA70BF
:100840000249034800F069F800BF80BD4000002065
:100850000008014080B483B000AF0346FB80FB88F2
:10086000802B42D0802B11DC082B36D0082B06DCE5
:10087000022B2ED0042B2ED0012B28D047E0202B8A
:100880002FD0402B2FD0102B29D040E0B3F5006F94
:1008900033D0B3F5006F09DCB3F5007F29D0B3F591
:1008A000806F28D0B3F5807F21D030E0B3F5005FB2
:1008B00027D0B3F5005F03DCB3F5805F1FD026E0DF
:1008C000B3F5804F1FD0B3F5004F1ED01FE00023BB
:1008D0001EE004231CE008231AE00C2318E0102378
:1008E00016E0142314E0182312E01C2310E0002368
:1008F0000EE004230CE008230AE00C2308E0102398
:1009000006E0142304E0182302E01C2300E0012386
:1009100018460C37BD4680BC704790B585B000AF17
:10092000786039600023BB600023FB733B681B8841
:10093000802B02D97B68043300E07B68BB603B6896
:100940001B881846FFF786FF03461A460F2393407D
:10095000DA43BB681B681A40BB681A603B689B7827
:10096000072B0BD03B689B78062B07D03B689B7806
:10097000052B03D03B689B78042B0ED13B689B78FA
:10098000043B9B005AB23B68DB785BB213435BB21B
:10099000DBB203F00F03FB732CE03B689B78012B69
:1009A00003D03B689B78002B07D13B689B789B006A
:1009B000DBB203F00F03FB731CE03B689B78082B52
:1009C00002D10423FB7315E00823FB733B689B787B
:1009D000022B07D17B68DB683A6812881A437B6870
:1009E000DA6007E07B68DB683A681288D2431A4015
:1009F0007B68DA60FC7B3B681B881846FFF72AFFA0
:100A0000034604FA03F2BB681B681A43BB681A600A
:100A100000BF1437BD4690BD80B483B000AF78608E
:100A20000B467B807B689A687B881340002B14BF41
:100A300001230023DBB218460C37BD4680BC70474B
:100A400080B483B000AF78607B689B689BB2184627
:100A50000C37BD4680BC704780B483B000AF78606F
:100A60000B467B8013467B707B78002B03D07A8803
:100A70007B681A6102E07A887B685A6100BF0C3794
:100A8000BD4680BC704780B483B000AF78600B4631
:100A90007B807A887B68DA6000BF0C37BD4680BCFB
:100AA0007047000080B588B000AF324B1B88BB8315
:100AB00000F06CF8FFF7D0FC2F48FFF7B3FD64207F
:100AC00000F0D6F8FFF722FD00F074F82B4A07F18A
:100AD000100307CA03C31A800233120C1A70284A83
:100AE0003B1D07CA03C31A800233120C1A7000237D
:100AF000FB771BE0FB7F07F12002134413F81C3C3B
:100B00001846FFF737FDFB7F07F12002134413F867
:100B1000103C9BB25B029BB219461A48FFF7B3FF29
:100B2000642000F0A5F8FB7F0133FB77FB7F0A2BE5
:100B3000E0D9FFF7EBFCFFF71BFB1348FFF772FD53
:100B4000642000F095F8FFF7E1FCFFF793FB034604
:100B50003B773B7F212B02D04E2B09D002E0FFF7E1
:100B6000D5FC06E007F11C031846FFF75BFDECE738
:100B700000BFEAE77C0D00085C0D0008800D00084E
:100B80008C0D0008000C0140680D000880B400AF17
:100B9000074B9B69064A43F004039361044B9B692E
:100BA000034A43F00803936100BFBD4680BC704711
:100BB0000010024080B582B000AF4FF40073BB80DC
:100BC0000423BB710123FB713B1D19462748FFF726
:100BD000A4FE4FF48063BB800423BB710123FB712F
:100BE0003B1D19462148FFF798FE4FF40063BB8078
:100BF0000423BB710123FB713B1D19461B48FFF702
:100C00008CFE4FF48053BB800423BB710123FB7126
:100C10003B1D19461548FFF780FE4FF40053BB807B
:100C20000423BB710123FB713B1D19460F48FFF7DD
:100C300074FE4FF48043BB800423BB710123FB711E
:100C40003B1D19460948FFF768FE4FF40043BB807F
:100C50000423BB710123FB713B1D19460348FFF7B9
:100C60005CFE00BF0837BD4680BD00BF00080140E4
:100C700080B485B000AF78600023FB600BE00023F8
:100C8000BB6002E0BB680133BB60BB68FE2BF9D9D7
:100C9000FB680133FB60FA687B689A42EFD300BFC0
:100CA0001437BD4680BC70470D488546AFF30080C1
:100CB0000C480D490D4A002302E0D458C4500433B7
:100CC000C4188C42F9D30A4A0A4C002301E013608D
:100CD0000432A242FBD300F011F8FFF7E3FEFEE777
:100CE000002800200000002020000020A00D0008A7
:100CF0002000002044000020FEE7000070B5002521
:100D00000C4E0D4CA41BA410A54209D100F01AF8FA
:100D100000250A4E0A4CA41BA410A54205D170BDA3
:100D200056F8253098470135EEE756F825309847B4
:100D30000135F2E7980D0008980D0008980D00089D
:100D40009C0D0008F8B500BFF8BC08BC9E46704773
:0C0D5000F8B500BFF8BC08BC9E46704718
:100D5C004865792074686572652100004B6579706F
:100D6C0061642069732072656164793A290000001E
:100D7C0000000000C0F9A4B0999282F88090C000E5
:0C0D8C003031323334353637383930001E
:040D980055010008F9
:040D9C003101000819
:100DA0000100000002000000080000001000000028
:100DB0002000000040000000800000000001000052
:0400000508000CA93A
:00000001FF
