:100000000C942A000C9447000C9447000C94470071
:100010000C9447000C9447000C9447000C94470044
:100020000C9447000C9447000C9447000C94470034
:100030000C9447000C9447000C9447000C94470024
:100040000C9447000C9447000C9447000C94470014
:100050000C94470011241FBECFE5D8E0DEBFCDBF12
:1000600010E0A0E6B0E0E0EFF2E002C005900D92F3
:10007000A037B107D9F720E0A0E7B0E001C01D929A
:10008000A037B207E1F70E9465010C9476010C9449
:10009000000081B3807F81BB81B3806F81BB8FEF14
:1000A00082BB0895E0E0F0E086C082B3806F82BB3F
:1000B00022B3DF01AA0FBB1FA05ABF4F81E090E01F
:1000C0000C9002C0880F991F0A94E2F78095822352
:1000D00082BB60E070E06AC080B3DB01AA0FBB1F87
:1000E000A859BF4F4C9121E030E0042E02C0220FEE
:1000F000331F0A94E2F790E082239323042E02C078
:10010000959587950A94E2F7892B09F04DC080B345
:1001100090E082239323042E02C0959587950A943C
:10012000E2F7892BA1F3E130F105C1F01CF430971F
:1001300041F03AC0E230F105F1F0E330F10541F170
:1001400033C061157105E9F161307105E1F162308B
:100150007105D9F16330710539F539C06115710543
:10016000C1F161307105B9F162307105B1F16330EF
:100170007105D1F434C06115710599F161307105D3
:1001800091F16230710589F16330710569F42FC016
:100190006115710571F16130710569F162307105A8
:1001A00061F16330710559F16F5F7F4F6430710504
:1001B0000CF492CF3196E430F1050CF476CF8EE456
:1001C000089587E3089584E3089581E3089581E223
:1001D000089588E3089585E3089582E3089580E310
:1001E000089589E3089586E3089583E308958DE3F0
:1001F00008958FE208958AE208958DE208958BE2D2
:10020000089588B3877F88BB83ED90E30197F1F76A
:1002100000C0000088B3886088BB08958AB31ABA0A
:1002200088B3846088BB88B38D7F88BB0E9401013E
:100230008FEF8ABB88B38B7F88BB0895CF93C82F7D
:100240000E940E01CBBB88B3897F88BB0E9401014D
:10025000CF91089581E00E941E01089587E893E1FF
:100260000197F1F700C000000E940E0187B38E6075
:1002700087BB88B3817F88BB8FEF8ABB85EA9EE00E
:100280000197F1F700C000000E942A0188E30E9454
:100290001E0186E00E941E0180E80E941E018FE080
:1002A0000E941E010895CF93C82F0E940E0188B3AB
:1002B000826088BBCBBB88B3826088BB88B38B7FEE
:1002C00088BB0E940101CF9108950E942E010E94D7
:1002D00049000E945200813219F08E34D1F303C0DC
:1002E0000E942A01F6CF0E945301F3CFF894FFCF6A
:1002F00004000500060007000000010002000300E2
:00000001FF
