:100000000C942A000C9447000C9447000C94470071
:100010000C9447000C9447000C9447000C94470044
:100020000C9447000C9447000C9447000C94470034
:100030000C9447000C9447000C9447000C94470024
:100040000C9447000C9447000C9447000C94470014
:100050000C94470011241FBECFE5D8E0DEBFCDBF12
:1000600010E0A0E6B0E0E0E4F2E002C005900D92FE
:10007000A037B107D9F720E0A0E7B0E001C01D929A
:10008000A237B207E1F70E9417010C941E010C94ED
:10009000000088B3877F88BB83ED90E30197F1F779
:1000A00000C0000088B3886088BB0895CF93C82F34
:1000B0008BB38F709C2F907F892B8BBB88B3826012
:1000C00088BB88B38B7F88BB0E9449002BB330E18B
:1000D000C39FC0011124922F9F70892B8BBB88B3C3
:1000E000826088BB88B38B7F88BB0E944900CF9118
:1000F00008958AB38F708ABB88B3846088BB88B345
:100100008D7F88BB0E9449008FEF8ABB88B38B7FAD
:1001100088BB0895CF93C82F0E9479008BB38F704E
:100120009C2F907F892B8BBB88B3897F88BB0E94D3
:10013000490087EA91E60197F1F700C000002BB370
:1001400030E1C39FC0011124922F9F70892B8BBB7C
:1001500088B3897F88BB0E944900CF91089581E0D0
:100160000E948A000895811107C0603168F480E818
:10017000860F0E948A000895813031F4603120F4A6
:1001800080EC860F0E948A000895CF93DF93EC01E4
:1001900020C021960E9456008091700090917100BD
:1001A000019690937100809370008031910529F43D
:1001B00060E081E00E94B3000CC0809751F40E947F
:1001C000AF0060E080E00E94B300109271001092D6
:1001D000700088818111DDCFDF91CF91089587E88C
:1001E00093E10197F1F700C000000E94790087B306
:1001F0008E6087BB88B3817F88BB8FEF8ABB85EA1F
:100200009EE00197F1F700C000000E94AF0082E07D
:100210000E948A0088E20E948A0086E00E948A008A
:1002200080E80E948A008FE00E948A0008950E9460
:10023000EF0080E690E00E94C500FFCFF894FFCF6A
:100240004C6561726E20696E206465707468000090
:00000001FF
