S010000041546D65676133322E7372656380
S11300000C942A000C9447000C9447000C9447006D
S11300100C9447000C9447000C9447000C94470040
S11300200C9447000C9447000C9447000C94470030
S11300300C9447000C9447000C9447000C94470020
S11300400C9447000C9447000C9447000C94470010
S11300500C94470011241FBECFE5D8E0DEBFCDBF0E
S113006010E0A0E6B0E0E2E5F2E002C005900D92F7
S1130070A037B107D9F720E0A0E7B0E001C01D9296
S1130080A237B207E1F70E94E9000C9427010C940F
S1130090000088B3877F88BB83ED90E30197F1F775
S11300A000C0000088B3886088BB08958AB31ABA78
S11300B088B3846088BB88B38D7F88BB0E94490065
S11300C08FEF8ABB88B38B7F88BB0895CF93C82FEB
S11300D00E945600CBBB88B3897F88BB0E9449002D
S11300E0CF91089581E00E9466000895811107C0B0
S11300F0603168F480E8860F0E94660008958130BC
S113010031F4603120F480EC860F0E94660008957B
S113011087E893E10197F1F700C000000E945600C0
S113012087B38E6087BB88B3817F88BB8FEF8ABB20
S113013085EA9EE00197F1F700C000000E9472007A
S113014088E30E94660086E00E94660080E80E94C0
S113015066008FE00E9466000895CF93C82F0E9426
S1130160560088B3826088BBCBBB88B3826088BBEF
S113017088B38B7F88BB0E944900CF910895CF93A9
S1130180DF93EC0120C021960E94AD0080917000A5
S1130190909171000196909371008093700080316A
S11301A0910529F460E081E00E9476000CC08097FC
S11301B051F40E94720060E080E00E947600109288
S11301C071001092700088818111DDCFDF91CF9191
S11301D00895CF93DF93CDB7DEB7E2970FB6F894C7
S11301E0DEBF0FBECDBF0E9488000E94040180E6DE
S11301F090E00E941001CE0101960E941D01CE01E3
S113020001960E94BF00F7CF83E389B98BB18D7F3C
S11302108BB98AB188608AB98AB180618AB9089534
S1130220FC0104C05D9BFECF8CB9319680818111A5
S1130230F9CF5D9BFECF1CB80895FC015F9BFECFF8
S11302409CB19083992311F03196F8CF0895F894D6
S1050250FFCFDA
S11302524C6561726E2D696E2D6465707468000060
S9030000FC
