:100000000C942A000C9434000C9434000C943400AA
:100010000C9434000C9434000C9434000C94340090
:100020000C9434000C9434000C9434000C94340080
:100030000C9434000C9434000C9434000C94340070
:100040000C9434000C9434000C9434000C94340060
:100050000C94340011241FBECFE5D8E0DEBFCDBF25
:100060000E9449000C9495000C94000081B38E7F8F
:1000700081BB82B38E7F82BB81B3806181BB81B340
:10008000806281BB81B3806481BB81B3806881BBA6
:1000900008950E943600809BFECF82B3806882BBA9
:1000A0002FE78AE196E0215080409040E1F700C0C0
:1000B000000082B3806482BB2FE78AE196E0215082
:1000C00080409040E1F700C0000082B3806282BBB4
:1000D0002FE78AE196E0215080409040E1F700C090
:1000E000000082B3806182BB2FE78AE196E0215055
:1000F00080409040E1F700C0000082B38F7782BB60
:1001000082B38F7B82BB82B38F7D82BB82B38F7EB3
:1001100082BB2FE78AE196E0215080409040E1F7D2
:0E01200000C000008099FECFB6CFF894FFCF4C
:00000001FF
