:100000000C942A000C9434000C9434000C943400AA
:100010000C9434000C9434000C9434000C94340090
:100020000C9434000C9434000C9434000C94340080
:100030000C9434000C9434000C9434000C94340070
:100040000C9434000C9434000C9434000C94340060
:100050000C94340011241FBECFE5D8E0DEBFCDBF25
:100060000E94AB000C94B0000C9400008FEF8ABB90
:100070008BBB08958F929F92AF92BF92CF92DF92E7
:10008000EF92FF9280E090E0DC0140E050E0BA01A6
:10009000C12CD12C7601C3944FC041155105610587
:1000A000710549F588309105A105B10544F0019726
:1000B000A109B10941E050E060E070E03DC04C01B1
:1000C0005D012FEF821A920AA20AB20A21E030E003
:1000D000F90102C0EE0FFF1F8A95E2F7CF019BB333
:1000E00089278BBB8FE493EC0197F1F700C00000E8
:1000F000D501C40121C0BB23E4F04C015D01E1E066
:100100008E1A9108A108B10821E030E0F90102C07F
:10011000EE0FFF1F8A95E2F7CF019BB389278BBBB8
:100120008FE493EC0197F1F700C00000D501C40102
:1001300003C0C12CD12C7601C114D104E104F10417
:1001400009F0ABCFFF90EF90DF90CF90BF90AF90D2
:100150009F908F9008950E9436000E943A00FDCF34
:04016000F894FFCF41
:00000001FF
