:020000040800F2
:1000000000280020F90E0008490F0008490F0008D9
:10001000490F0008490F0008490F000800000000C0
:10002000000000000000000000000000490F000870
:10003000490F000800000000490F0008490F0008A0
:10004000490F0008490F0008490F0008490F000830
:10005000490F0008490F00087101000895010008C8
:10006000B9010008DD01000801020008490F00087D
:10007000490F0008490F0008490F0008490F000800
:10008000490F0008490F0008490F0008490F0008F0
:10009000490F0008490F0008490F00082502000811
:1000A000490F0008490F0008490F0008490F0008D0
:1000B000490F0008490F0008490F0008490F0008C0
:1000C000490F0008490F0008490F00083D0A0008C1
:1000D000950A00087D0D0008910D0008A50D000887
:1000E000CD020008490F000800000000490F000879
:1000F000490F0008490F0008490F0008490F000880
:10010000490F0008490F0008490F0008490F00086F
:10011000490F0008490F0008490F0008490F00085F
:10012000490F0008490F0008490F0008490F00084F
:1001300010B5054C237833B9044B13B10448AFF321
:1001400000800123237010BD00000020000000008B
:10015000940F000808B5034B1BB103490348AFF3E4
:10016000008008BD0000000004000020940F00087B
:1001700080B500AF054B5B69044A43F0010353614E
:10018000034B1B68984700BF80BD00BF00040140BF
:100190001C00002080B500AF054B5B69044A43F0AA
:1001A00002035361034B5B68984700BF80BD00BFEB
:1001B000000401401C00002080B500AF054B5B69C6
:1001C000044A43F004035361034B9B68984700BF04
:1001D00080BD00BF000401401C00002080B500AFBE
:1001E000054B5B69044A43F008035361034BDB682A
:1001F000984700BF80BD00BF000401401C000020E4
:1002000080B500AF054B5B69044A43F010035361AE
:10021000034B1B69984700BF80BD00BF000401402D
:100220001C00002080B500AF264B5B6903F0200363
:10023000002B08D0234B5B69224A43F02003536113
:10024000214B5B6998471F4B5B6903F04003002B10
:1002500008D01C4B5B691B4A43F0400353611A4BA7
:100260009B699847174B5B6903F08003002B08D00C
:10027000144B5B69134A43F080035361124BDB69F3
:100280009847104B5B6903F48073002B08D00D4B2B
:100290005B690C4A43F4807353610B4B1B6A9847AC
:1002A000084B5B6903F40073002B08D0054B5B69B6
:1002B000044A43F400735361034B5B6A984700BFE1
:1002C00080BD00BF000401401C00002080B500AFCD
:1002D0002D4B5B6903F48063002B08D02A4B5B69CC
:1002E000294A43F480635361284B9B6A9847264B05
:1002F0005B6903F40063002B08D0234B5B69224A3F
:1003000043F400635361214BDB6A98471E4B5B69E2
:1003100003F48053002B08D01B4B5B691A4A43F44B
:1003200080535361194B1B6B9847174B5B6903F460
:100330000053002B08D0144B5B69134A43F400535D
:100340005361124B5B6B98470F4B5B6903F480431F
:10035000002B08D00C4B5B690B4A43F4804353617C
:100360000A4B9B6B9847084B5B6903F40043002BD7
:1003700008D0054B5B69044A43F400435361034BC7
:10038000DB6B984700BF80BD000401401C000020CB
:1003900080B483B000AF0346FB80FB88802B42D043
:1003A000802B11DC082B36D0082B06DC022B2ED03C
:1003B000042B2ED0012B28D047E0202B2FD0402B10
:1003C0002FD0102B29D040E0B3F5006F33D0B3F518
:1003D000006F09DCB3F5007F29D0B3F5806F28D01A
:1003E000B3F5807F21D030E0B3F5005F27D0B3F5BF
:1003F000005F03DCB3F5805F1FD026E0B3F5804FCC
:100400001FD0B3F5004F1ED01FE000231EE00423D1
:100410001CE008231AE00C2318E0102316E0142334
:1004200014E0182312E01C2310E000230EE0042344
:100430000CE008230AE00C2308E0102306E0142354
:1004400004E0182302E01C2300E0012318460C37C7
:10045000BD4680BC704790B585B000AF786039600C
:100460000023BB600023FB733B681B88802B02D9F1
:100470007B68043300E07B68BB603B681B881846E0
:10048000FFF786FF03461A460F239340DA43BB6803
:100490001B681A40BB681A603B689B78072B0BD01F
:1004A0003B689B78062B07D03B689B78052B03D0D5
:1004B0003B689B78042B0ED13B689B78043B9B00E8
:1004C0005AB23B68DB785BB213435BB2DBB203F03A
:1004D0000F03FB732CE03B689B78012B03D03B6838
:1004E0009B78002B07D13B689B789B00DBB203F025
:1004F0000F03FB731CE03B689B78082B02D104239D
:10050000FB7315E00823FB733B689B78022B07D134
:100510007B68DB683A6812881A437B68DA6007E018
:100520007B68DB683A681288D2431A407B68DA60DD
:10053000FC7B3B681B881846FFF72AFF034604FA3A
:1005400003F2BB681B681A43BB681A6000BF14370C
:10055000BD4690BD80B483B000AF78600B467B8011
:1005600013467B707B78002B03D07A887B681A61F6
:1005700002E07A887B685A6100BF0C37BD4680BCB8
:100580007047000080B400AF0A4B5B689B0803F023
:100590000303012B06D0012B02D3022B04D005E06C
:1005A000054B03E0054B01E0044BFFE71846BD4651
:1005B00080BC70470010024000127A000024F40052
:1005C00080B500AFFFF7DEFF0146054B5B681B0AF5
:1005D00003F00703034AD35C21FA03F3184680BDF6
:1005E00000100240B40F000880B500AFFFF7E8FF2D
:1005F0000146054B5B681B0A03F00703034AD35C03
:1006000021FA03F3184680BD00100240AC0F000829
:1006100080B500AFFFF7D4FF0146054B5B68DB0AEE
:1006200003F00703034AD35C21FA03F3184680BDA5
:1006300000100240AC0F0008B0B485B000AF786085
:1006400039600023FB810023BB817B68484A9342C9
:1006500010D1484A3B6814461D460FCD0FC495E89B
:10066000030084E80300444B9B69434A43F48053EE
:10067000936114E07B68414A934210D13D4B3A6844
:1006800003F1180415460FCD0FC495E8030084E864
:100690000300394BDB69384A43F48043D36140237C
:1006A000FB813B681A88FB891343FB813B685A88AE
:1006B000FB891343FB813B689A88FB891343FB81C9
:1006C0003B68DA88FB891343FB813B681A89FB8905
:1006D0001343FB813B685A89FB891343FB813B68C9
:1006E0009B89042B05D13B689A89BB891343BB8145
:1006F00010E03B689B894FF6FB72934205D13B6843
:100700009A89BB891340BB8104E03B689A89FB89C5
:100710001343FB813B68DA89FB891343FB813B6808
:100720001B8A002B19D03B681A8ABB891343BB81F3
:100730007B680F4A934206D1114B1B68104A43F065
:100740000803136009E07B680C4A934205D10C4B07
:100750001B680B4A43F010031360FA897B681A6028
:10076000BA897B685A6000BF1437BD46B0BC704779
:1007700000300140580000200010024000380040C6
:1007800004E100E080B584B000AF78607B687F4A08
:10079000934275D17E4B1B88042B42D17C4B9B89A5
:1007A000042B0ED04FF6FB72934217D10123BB737B
:1007B0001023BB8107F10C0319467648FFF74BFE67
:1007C0000CE00623BB731023BB810123FB7307F1ED
:1007D0000C0319466F48FFF73EFE00BF0623BB73AC
:1007E0002023BB810123FB7307F10C0319466948E1
:1007F000FFF731FE0123BB734023BB8107F10C03DC
:1008000019466448FFF727FE0623BB738023BB818C
:100810000123FB7307F10C0319465E48FFF71BFE2B
:10082000B0E05B4B1B88002B09D10123BB73102365
:10083000BB8107F10C0319465648FFF70CFE012354
:10084000BB732023BB8107F10C0319465148FFF706
:1008500002FE0623BB734023BB810123FB7307F118
:100860000C0319464B48FFF7F6FD0123BB738023A9
:10087000BB8107F10C0319464648FFF7ECFD81E008
:100880007B68454A93427DD1414B1B8B042B47D15A
:100890003F4B9B89042B0FD04FF6FB72934219D12B
:1008A0000123BB734FF48053BB8107F10C0319463E
:1008B0003A48FFF7D0FD0DE00623BB734FF4805399
:1008C000BB810123FB7307F10C0319463348FFF783
:1008D000C2FD00BF0623BB734FF40053BB8101234D
:1008E000FB7307F10C0319462C48FFF7B4FD0123F5
:1008F000BB734FF48043BB8107F10C0319462748B3
:10090000FFF7A9FD0623BB734FF40043BB8101230E
:10091000FB7307F10C0319462048FFF79CFD31E0FB
:100920001B4B1B8B002B0AD10123BB734FF480534D
:10093000BB8107F10C0319461848FFF78CFD012312
:10094000BB734FF40053BB8107F10C0319461348E6
:10095000FFF781FD0623BB734FF48043BB81012366
:10096000FB7307F10C0319460C48FFF774FD0123D4
:10097000BB734FF40043BB8107F10C0319460748D2
:10098000FFF769FD00BF1037BD4680BD0030014054
:10099000580000200008014000380040000C0140D1
:1009A00080B485B000AFF860B9601346FB71FB7985
:1009B000002B06D100BFFB689B6803F00203002BED
:1009C000F9D0BB681B881A46FB68DA6000BF143791
:1009D000BD4680BC704780B485B000AFF860B96098
:1009E0001346FB71FB79002B06D100BFFB689B68A7
:1009F00003F00103002BF9D0FB68DB689AB2BB68F7
:100A00001A8000BF1437BD4680BC704780B584B0E3
:100A100000AFF860B9601346FB71FB791A46B968FC
:100A2000F868FFF7BDFFFB791A46B968F868FFF769
:100A3000D2FF00BF1037BD4680BD000080B582B038
:100A400000AF124B9B685B0803F00103DAB23B79FD
:100A500062F300033B710D4B9B6803F00103DAB2B4
:100A60003B7962F341033B71084B9B681B0903F020
:100A70000103DAB23B7962F382033B71044B5B6999
:100A80003879984700BF0837BD4680BD0030014027
:100A90005800002080B582B000AF124B9B685B0805
:100AA00003F00103DAB23B7962F300033B710D4BB3
:100AB0009B6803F00103DAB23B7962F341033B71B7
:100AC000084B9B681B0903F00103DAB23B7962F320
:100AD00082033B71044BDB6A3879984700BF0837C3
:100AE000BD4680BD0038004058000020B0B584B03D
:100AF00000AF78603960594A3B6814461D460FCDF7
:100B00000FC42B6823607B68554A934206D1554B2E
:100B10009B69544A43F48043936114E07B68524AD2
:100B2000934206D14F4BDB694E4A43F40033D36105
:100B300009E07B684D4A934205D14A4BDB69494A3B
:100B400043F48023D3617B68DB6843F400527B6805
:100B5000DA607B68DB683A6812781A437B68DA608F
:100B60007B68DB683A68127A1A437B68DA607B68D4
:100B7000DB683A68527A1A437B68DA607B681B69E3
:100B80003A68927A1A437B681A617B685B693A68B3
:100B9000D27A1A437B685A617B68314A934203D107
:100BA000FFF736FDF86002E0FFF71EFDF8603B68D6
:100BB0005B681B01FA68B2FBF3F31901FA6813468C
:100BC0009B0013449A001A443B685B689B00B2FB8D
:100BD000F3F23B685B681B01F868B0FBF3F3642039
:100BE00000FB03F3D31A1B01214AA2FB03235B0979
:100BF00003F00F0341EA03027B689A603B681B7BAA
:100C0000002B26D07B68DB683A68127B1A437B682E
:100C1000DA607B68124A934206D1164B1B68154A6C
:100C200043F02003136014E07B680F4A934206D11F
:100C3000104B1B680F4A43F04003136009E07B68C8
:100C40000A4A934205D10B4B1B680A4A43F08003C2
:100C5000136000BF1037BD46B0BD00BF8800002044
:100C600000380140001002400044004000480040AD
:100C70001F85EB5104E100E080B584B000AF7860DF
:100C80007B682B4A934218D14FF40073BB81062333
:100C9000BB730123FB7307F10C0319462548FFF7CB
:100CA000DAFB4FF48063BB810823BB7307F10C03AD
:100CB00019462048FFF7CFFB36E07B681E4A934277
:100CC00016D10423BB810623BB730123FB7307F1F9
:100CD0000C0319461748FFF7BEFB0823BB81082306
:100CE000BB7307F10C0319461248FFF7B4FB1BE076
:100CF0007B68124A934217D14FF48063BB8106236D
:100D0000BB730123FB7307F10C0319460C48FFF773
:100D1000A2FB4FF40063BB810823BB7307F10C03F4
:100D200019460748FFF797FB00BF1037BD4680BD47
:100D300000380140000801400044004000480040E5
:100D4000000C014080B485B000AFF860B960134674
:100D5000FB71FB79002B06D100BFFB681B6803F019
:100D60008003002BF9D0BB681B88DAB2FB685A609D
:100D700000BF1437BD4680BC7047000080B500AF8F
:100D8000024B1B69984700BF80BD00BF8800002050
:100D900080B500AF024B1B69984700BF80BD00BF04
:100DA0008800002080B500AF024B1B69984700BF48
:100DB00080BD00BF8800002080B500AF00F006F8BD
:100DC00000F01EF800F040F8FEE7000080B400AF2D
:100DD0000A4B9B69094A43F004039361074B9B69E3
:100DE000064A43F008039361044B9B69034A43F0AE
:100DF0000103936100BFBD4680BC704700100240F4
:100E000080B586B000AF4FF4E133BB600023FB73C5
:100E100020233B740A4B7B6100237B7300233B73CD
:100E20000023BB730C233B713B1D19460548FFF79C
:100E30005DFE0448FFF720FF00BF1837BD4680BDA8
:100E4000A90E00080038014080B588B000AF01232A
:100E50007B8202233B820023FB810023BB81102382
:100E6000FB8200237B8100233B8140233B830023C3
:100E7000BB820A4BFB6107F1080319460848FFF7DC
:100E8000DBFB0748FFF77EFC012210210548FFF736
:100E900061FB00BF2037BD4680BD00BFB50E000816
:100EA000003001400008014080B400AF00BFBD46E3
:100EB00080BC704780B582B000AF38713B7903F0D9
:100EC0000203DBB2002B0CD0084B0F221A70012258
:100ED00006490748FFF79AFD002204490548FFF735
:100EE00031FF00BF0837BD4680BD00BF9C00002019
:100EF00000300140003801400D488546AFF30080C6
:100F00000C480D490D4A002302E0D458C450043364
:100F1000C4188C42F9D30A4A0A4C002301E013603A
:100F20000432A242FBD300F011F8FFF745FFFEE7C1
:100F3000002800200000002000000020CC0F000846
:100F400000000020A0000020FEE7000070B5002592
:100F50000C4E0D4CA41BA410A54209D100F01AF8A8
:100F600000250A4E0A4CA41BA410A54205D170BD51
:100F700056F8253098470135EEE756F82530984762
:100F80000135F2E7C40F0008C40F0008C40F0008C1
:100F9000C80F0008F8B500BFF8BC08BC9E467047F3
:0C0FA000F8B500BFF8BC08BC9E467047C6
:100FAC00000000000102030400000000000000002B
:080FBC00010203040607080905
:040FC40055010008CB
:040FC80031010008EB
:0400000508000EF9E8
:00000001FF
