:020000040800F2
:1000000000280020F11000084111000841110008EB
:1000100041110008411100084111000800000000D2
:100020000000000000000000000000004111000876
:1000300041110008000000004111000841110008B2
:100040004111000841110008411100084111000848
:100050004111000841110008A5020008C90200086A
:10006000ED020008110300083503000841110008E3
:100070004111000841110008411100084111000818
:100080004111000841110008411100084111000808
:1000900041110008411100084111000859030008EE
:1000A00041110008411100084111000841110008E8
:1000B000411100084111000841110008A50C000879
:1000C000910D00089D0D0008A90D00085D0F0008A6
:1000D000B50F00080D1000082110000835100008A9
:1000E000010400084111000800000000411100084F
:1000F0004111000841110008411100084111000898
:100100004111000841110008411100084111000887
:100110004111000841110008411100084111000877
:100120004111000841110008411100084111000867
:1001300010B5054C237833B9044B13B10448AFF321
:1001400000800123237010BD00000020000000008B
:100150008C11000808B5034B1BB103490348AFF3EA
:10016000008008BD00000000040000208C11000881
:1001700080B58AB000AF40233B624FF48063FB61DF
:10018000094B7B600023FB6000237B620023BB6084
:10019000064800F083FB3B1D1946044800F074FA42
:1001A00000BF2837BD4680BDA08601000054004036
:1001B00080B5C8B002AF07F10C03186007F108035F
:1001C0001960FB1D1A7007F10C031B681B0ADAB2D9
:1001D00007F114031A7007F10C031B68DAB207F178
:1001E00014035A70022387F8173111E097F817317A
:1001F000023B07F1080212681A4497F81731117888
:1002000007F11402D15497F81731013387F81731E9
:1002100097F81721FB1D1B7802339A42E6DBFB1D82
:100220001B780233194607F11402002301930023BF
:1002300000930B462A21044800F074FB0023184663
:1002400007F58C77BD4680BD0054004080B588B06E
:1002500002AFF860B9601346FB71FB681B0ADBB2A2
:100260003B75FB68DBB27B7507F114020023019339
:100270000123009302232A21094800F053FBFA7955
:1002800001230193002300931346BA682A210448EE
:1002900000F09EFB002318461837BD4680BD00BF06
:1002A0000054004080B500AF054B5B69044A43F041
:1002B00001035361034B1B68984700BF80BD00BF1B
:1002C000000401406400002080B500AF054B5B696D
:1002D000044A43F002035361034B5B68984700BF35
:1002E00080BD00BF000401406400002080B500AF65
:1002F000054B5B69044A43F004035361034B9B685D
:10030000984700BF80BD00BF00040140640000208A
:1003100080B500AF054B5B69044A43F008035361A5
:10032000034BDB68984700BF80BD00BF000401405D
:100330006400002080B500AF054B5B69044A43F0C0
:1003400010035361034B1B69984700BF80BD00BF7A
:10035000000401406400002080B500AF264B5B69BB
:1003600003F02003002B08D0234B5B69224A43F0A3
:1003700020035361214B5B6998471F4B5B6903F076
:100380004003002B08D01C4B5B691B4A43F0400321
:1003900053611A4B9B699847174B5B6903F08003C5
:1003A000002B08D0144B5B69134A43F08003536160
:1003B000124BDB699847104B5B6903F48073002B89
:1003C00008D00D4B5B690C4A43F4807353610B4BAF
:1003D0001B6A9847084B5B6903F40073002B08D035
:1003E000054B5B69044A43F400735361034B5B6A3A
:1003F000984700BF80BD00BF00040140640000209A
:1004000080B500AF2D4B5B6903F48063002B08D0EF
:100410002A4B5B69294A43F480635361284B9B6AEA
:100420009847264B5B6903F40063002B08D0234BED
:100430005B69224A43F400635361214BDB6A9847AE
:100440001E4B5B6903F48053002B08D01B4B5B6988
:100450001A4A43F480535361194B1B6B9847174B4F
:100460005B6903F40053002B08D0144B5B69134AFB
:1004700043F400535361124B5B6B98470F4B5B691E
:1004800003F48043002B08D00C4B5B690B4A43F408
:10049000804353610A4B9B6B9847084B5B6903F49D
:1004A0000043002B08D0054B5B69044A43F400432A
:1004B0005361034BDB6B984700BF80BD00040140D4
:1004C0006400002080B483B000AF0346FB80FB884B
:1004D000802B42D0802B11DC082B36D0082B06DC79
:1004E000022B2ED0042B2ED0012B28D047E0202B1E
:1004F0002FD0402B2FD0102B29D040E0B3F5006F28
:1005000033D0B3F5006F09DCB3F5007F29D0B3F524
:10051000806F28D0B3F5807F21D030E0B3F5005F45
:1005200027D0B3F5005F03DCB3F5805F1FD026E072
:10053000B3F5804F1FD0B3F5004F1ED01FE000234E
:100540001EE004231CE008231AE00C2318E010230B
:1005500016E0142314E0182312E01C2310E00023FB
:100560000EE004230CE008230AE00C2308E010232B
:1005700006E0142304E0182302E01C2300E001231A
:1005800018460C37BD4680BC704790B585B000AFAB
:10059000786039600023BB600023FB733B681B88D5
:1005A000802B02D97B68043300E07B68BB603B682A
:1005B0001B881846FFF786FF03461A460F23934011
:1005C000DA43BB681B681A40BB681A603B689B78BB
:1005D000072B0BD03B689B78062B07D03B689B789A
:1005E000052B03D03B689B78042B0ED13B689B788E
:1005F000043B9B005AB23B68DB785BB213435BB2AF
:10060000DBB203F00F03FB732CE03B689B78012BFC
:1006100003D03B689B78002B07D13B689B789B00FD
:10062000DBB203F00F03FB731CE03B689B78082BE5
:1006300002D10423FB7315E00823FB733B689B780E
:10064000022B07D17B68DB683A6812881A437B6803
:10065000DA6007E07B68DB683A681288D2431A40A8
:100660007B68DA60FC7B3B681B881846FFF72AFF33
:10067000034604FA03F2BB681B681A43BB681A609E
:1006800000BF1437BD4690BDB0B586B000AF7860EE
:1006900039600023FB820023BB8200237B8200237E
:1006A000FB607B68764A934210D1764A3B681446D9
:1006B0001D460FCD0FC40FCD0FC42B682360724BA6
:1006C000DB69714A43F40013D36110E06D4B3A6863
:1006D00003F1240415460FCD0FC40FCD0FC42B68B2
:1006E0002360694BDB69684A43F48003D3613B684C
:1006F0009B68002B40F081807B685B68FB82FB8AF3
:1007000023F03F03FB8200F015FCF860FB685F4AB2
:10071000A2FB03239B0CBB82FA8ABB8A1343FB8296
:10072000FA8A7B685A607B681B6823F001027B6849
:100730001A600023FB823B681B684CF250329342E4
:1007400004D03B681B68524A934212D13B681B6835
:100750005B00FA68B2FBF3F37B82FA8A7B8A13436D
:10076000FB827A8A7B68DA61BB8A01331A467B682E
:100770001A627B681B68FB823B689B699AB23B6884
:10078000DB699BB213439AB23B689B689BB21343ED
:100790009AB23B685B689BB213439AB2FB8A1343DD
:1007A000FB82FA8A7B681A600023FB823B689B8984
:1007B000012B0FD1FB8A43F00103FB823B68DB8AEC
:1007C0005B001AB2B7F9163013431BB2FB82FA8AE8
:1007D0007B68DA600023FB823B689B8A5B001AB26D
:1007E000B7F9163013431BB2FB823B681B699AB200
:1007F000FB8A1343FB827B689B683B681B6A002B68
:1008000034D07B685B6843F480727B685A607B6895
:100810005B6843F480627B685A607B685B6843F482
:1008200000727B685A607B68154A93420CD1194B61
:100830001B68184A43F000431360174B1B68164AA5
:1008400043F0010313600BE0134B1B68124A43F0A3
:1008500002031360104B1B680F4A43F0040313603C
:100860007B6800225A617B6800229A617B681B6862
:1008700043F001027B681A6000BF1837BD46B0BD67
:10088000005400401C0000200010024083DE1B4387
:10089000A086010000E100E004E100E080B584B042
:1008A00000AF78607B681D4A934218D14023BB811A
:1008B0000723BB730123FB7307F10C031946184888
:1008C000FFF763FE8023BB810723BB730123FB7308
:1008D00007F10C0319461248FFF757FE19E04FF4D1
:1008E0008063BB810723BB730123FB7307F10C03F8
:1008F00019460B48FFF749FE4FF40063BB810723FD
:10090000BB730123FB7307F10C0319460448FFF77F
:100910003CFE00BF1037BD4680BD00BF0054004004
:10092000000C014080B586B000AFF8607A603B6093
:100930000B467B8100237B6197F824301A46012106
:10094000F86800F0B9F800BF0121F86800F0DCF8A1
:100950000346002BF8D07B8900221946F86800F086
:100960004FF900BF0221F86800F0CEF80346002BD3
:10097000F8D000BF1549F86800F0C6F80346002B10
:10098000F8D000237B6111E07B697A6813441B78FF
:100990001A46FB681A6100BF0321F86800F0B4F83A
:1009A0000346002BF8D07B6901337B617B693A6891
:1009B0009A42E9D897F82030002B03D10121F8683A
:1009C00000F054F900BF1837BD4680BD8000070015
:1009D00080B586B000AFF8607A603B600B467B81E3
:1009E00000237B61FB68324A934214BF012300233A
:1009F000DBB2FB7497F824301A460121F86800F046
:100A00005BF800BF0121F86800F07EF80346002B78
:100A1000F8D07B8901221946F86800F0F1F800BF90
:100A20000221F86800F070F80346002BF8D001218D
:100A3000F86800F031FA3B68002B1CD03B687B6102
:100A400012E000BF0521F86800F05EF80346002BB5
:100A5000F8D0FB681B69DAB27B681A707B680133D7
:100A60007B607B69013B7B617B69002BE9D10021C5
:100A7000F86800F011FA97F82030002B03D101211B
:100A8000F86800F0F3F8FA7C0A491346DB001344D7
:100A90009B000B4418331B68B3F5806F03D1012111
:100AA000F86800F0F9F900BF1837BD4680BD00BFF7
:100AB000005400401C00002080B582B000AF786078
:100AC0000B46FB701346BB70BB78012B07D000BFF1
:100AD0000021786800F018F80346002BF8D1FB7865
:100AE000002B06D07B681B6843F480727B681A6019
:100AF00005E07B681B6823F480727B681A6000BF86
:100B00000837BD4680BD000080B487B000AF786074
:100B100039600023FB7500233B610023FB60002349
:100B2000BB603B68042B06D8032B49D2012B14D0A1
:100B3000012B1ED805E0052B4ED0304A934224D01D
:100B400056E07B689B6903F00203002B02D001236F
:100B5000FB754DE00023FB754AE07B685B6903F0A1
:100B60000103002B02D00123FB7541E00023FB753C
:100B70003EE07B685B6903F00203002B02D0012397
:100B8000FB7535E00023FB7532E07B685B693B61F8
:100B90007B689B69FB60FB681B04FB603A69FB6830
:100BA000134323F07043BB60BA68144B1340134ADD
:100BB000934202D10123FB751AE00023FB7517E075
:100BC0007B685B6903F08003002B02D00123FB7577
:100BD0000EE00023FB750BE07B685B6903F04003CC
:100BE000002B02D00123FB7501E00023FB7500BF41
:100BF000FB7D18461C37BD4680BC7047800007004F
:100C000080B485B000AF78600B467B8013467B7064
:100C10007B68144A934214BF01230023DBB2FB73A9
:100C2000FA7B11491346DB0013449B000B4410333D
:100C30001B68002B11D17B885B007B807B78002BAD
:100C400004D07B8843F001037B8003E07B8823F0A2
:100C500001037B807A887B681A6100BF1437BD4628
:100C600080BC7047005400401C00002080B483B05A
:100C700000AF78600B46FB70FB78002B06D07B68DA
:100C80001B6843F400727B681A6005E07B681B6890
:100C900023F400727B681A6000BF0C37BD4680BC2D
:100CA0007047000080B586B000AF00233B61374B32
:100CB0007B617B695B6803F40073FB607B695B6845
:100CC00003F48063BB607B695B6903F010037B60A6
:100CD000FB68002B0AD07B68002B07D07B691A6861
:100CE0007B691A600021786900F064F87B695B69B0
:100CF00003F002037B60FB68002B12D07B68002BA3
:100D00000FD07B699B6903F00103002B09D17B693C
:100D10005B693B617B699B693B610221786900F0FB
:100D200049F87B695B6903F080037B60FB68002BFB
:100D30000FD0BB68002B0CD07B68002B09D07B69DF
:100D40009B6903F00103002B03D10321786900F0B4
:100D500031F87B695B6903F040037B60FB68002B23
:100D60000FD0BB68002B0CD07B68002B09D07B69AF
:100D70009B6903F00103002B03D10421786900F083
:100D800019F800BF1837BD4680BD00BF00540040B1
:100D900080B400AF00BFBD4680BC704780B400AFD8
:100DA00000BFBD4680BC704780B400AF00BFBD46E9
:100DB00080BC704780B584B000AF78600B46FB7094
:100DC0007B68334A934214BF01230023DBB2FB73D9
:100DD000FB78042B51D801A252F823F0F70D00083C
:100DE000F10D00081B0E0008330E0008570E000816
:100DF0007B689B6948E07B689B6903F00403002BD8
:100E00003DD0FA7B23491346DB0013449B000B447F
:100E100020331B680020984731E0FA7B1D491346B8
:100E2000DB0013449B000B4420331B6802209847CF
:100E30002AE07B689B6903F00403002B21D0FA7B36
:100E400014491346DB0013449B000B4420331B68FA
:100E50000320984715E07B689B6903F00403002B8F
:100E600011D0FA7B0B491346DB0013449B000B4463
:100E700020331B680420984705E000BF04E000BF52
:100E800002E000BF00E000BF00BF1037BD4680BDDC
:100E9000005400401C00002080B483B000AF786094
:100EA0000B46FB70FB78002B06D07B681B6843F475
:100EB00080627B681A6005E07B681B6823F48062AF
:100EC0007B681A6000BF0C37BD4680BC70470000CD
:100ED00080B400AF0A4B5B689B0803F00303012B4F
:100EE00006D0012B02D3022B04D005E0054B03E012
:100EF000054B01E0044BFFE71846BD4680BC704738
:100F00000010024000127A000024F40080B500AF07
:100F1000FFF7DEFF0146054B5B681B0A03F0070382
:100F2000034AD35C21FA03F3184680BD0010024047
:100F3000B411000880B500AFFFF7E8FF0146054B8C
:100F40005B681B0A03F00703034AD35C21FA03F32F
:100F5000184680BD00100240AC11000880B582B078
:100F600000AF124B9B685B0803F00103DAB23B79D8
:100F700062F300033B710D4B9B6803F00103DAB28F
:100F80003B7962F341033B71084B9B681B0903F0FB
:100F90000103DAB23B7962F382033B71044B5B6974
:100FA0003879984700BF0837BD4680BD0030014002
:100FB000A000002080B582B000AF124B9B685B0898
:100FC00003F00103DAB23B7962F300033B710D4B8E
:100FD0009B6803F00103DAB23B7962F341033B7192
:100FE000084B9B681B0903F00103DAB23B7962F3FB
:100FF00082033B71044BDB6A3879984700BF08379E
:10100000BD4680BD00380040A000002080B500AF84
:10101000024B1B69984700BF80BD00BFD000002075
:1010200080B500AF024B1B69984700BF80BD00BF71
:10103000D000002080B500AF024B1B69984700BF6D
:1010400080BD00BFD000002080B584B000AF00F0AC
:1010500035F8FFF78DF8184A07F1080392E8030006
:1010600018600433198002330A0C1A7007F1080360
:1010700007221946AF20FFF79BF83B460722194687
:10108000AF20FFF7E3F80A233B720B237B720C239C
:10109000BB720D23FB7207F108030422194640F6C8
:1010A000FF70FFF785F83B460422194640F6FF70B3
:1010B000FFF7CCF8FEE700BFA411000880B400AF32
:1010C0000A4B9B69094A43F004039361074B9B69F0
:1010D000064A43F008039361044B9B69034A43F0BB
:1010E0000103936100BFBD4680BC70470010024001
:1010F0000D488546AFF300800C480D490D4A00238A
:1011000002E0D458C4500433C4188C42F9D30A4ABC
:101110000A4C002301E013600432A242FBD300F02A
:1011200011F8FFF791FFFEE70028002000000020E3
:1011300000000020CC11000800000020E400002086
:10114000FEE7000070B500250C4E0D4CA41BA4104A
:10115000A54209D100F01AF800250A4E0A4CA41B3A
:10116000A410A54205D170BD56F825309847013529
:10117000EEE756F8253098470135F2E7C41100082C
:10118000C4110008C4110008C8110008F8B500BF58
:10119000F8BC08BC9E467047F8B500BFF8BC08BC58
:0411A0009E467047B0
:1011A4000102030405060700000000000102030415
:1011B4000000000000000000010203040607080903
:0411C40055010008C9
:0411C80031010008E9
:04000005080010F1EE
:00000001FF
