S017000041546D65676133325F4472697665722E73726563AE
S11300000C942A000C9447000C9447000C9447006D
S11300100C9447000C9447000C9447000C94470040
S11300200C9447000C9447000C9447000C94470030
S11300300C9447000C9447000C9447000C94470020
S11300400C9447000C9447000C9447000C94470010
S11300500C94470011241FBECFE5D8E0DEBFCDBF0E
S113006010E0A0E6B0E0E8E0F2E002C005900D92F6
S1130070A036B107D9F720E0A0E6B0E001C01D9298
S1130080A036B207E1F70E9495000C9402010C948B
S11300900000CF93C62F98B39F7E98BB0E94FD00AB
S11300A08C2F0E94FD0088B3806188BBCF91089596
S11300B06FEF89E00E94490067E08BE00E944900ED
S11300C06FE08AE00E94490061E08CE00E944900F0
S11300D008950E9449000895CF93DF93CDB7DEB70A
S11300E02A970FB6F894DEBF0FBECDBF85E18B8390
S11300F08983CE0101960E9497000E94580060E017
S113010011E007C001E0060F812F0E9469001F5F04
S1130110602F1930B8F32FE38DE093E02150804035
S11301209040E1F700C00000EBCF0E946C00FC019E
S11301308681853121F48DB180688DB905C0843103
S113014019F48DB18F778DB98185853121F48DB105
S113015080628DB905C0843119F48DB18F7D8DB95C
S113016080818531D1F48DB180618DB987B3806B85
S113017087BB87B38F7B87BB9DB18181892B8DB969
S11301808381853121F48DB181608DB911C08431B1
S113019079F48DB18E7F8DB90BC0843149F48DB162
S11301A08F7E8DB987B3806487BB87B38F7487BB19
S11301B08481843121F48DB188608DB905C0853185
S11301C019F48DB1877F8DB98581853121F48DB185
S11301D084608DB905C0843119F48DB18B7F8DB9DC
S11301E08281853121F48DB180648DB90895843183
S11301F019F48DB18F7B8DB908958FB9779BFECF9C
S10B02008FB10895F894FFCFBB
S9030000FC
