:100000000C942A000C9447000C9447000C94470071
:100010000C9447000C9447000C9447000C94470044
:100020000C9447000C9447000C94A1020C94C80255
:100030000C9447000C9447000C9447000C94470024
:100040000C947A020C9447000C9447000C944700DF
:100050000C94470011241FBECFE5D8E0DEBFCDBF12
:1000600010E0A0E6B0E0E8E3FCE002C005900D92ED
:10007000AC36B107D9F720E0ACE6B0E001C01D9284
:10008000A239B207E1F70E94FE010C941A060C9403
:1000900000002091760030917700409178005091D7
:1000A0007900A4E6B0E00E9416032FEF33E040E0B1
:1000B00050E00E94F4022093760030937700409342
:1000C00078005093790080E690E00E94A101609151
:1000D00076007091770080917800909179000E946D
:1000E000D00185E20E943E0180EC0E941B0120911C
:1000F000760030917700409178005091790068EE59
:1001000073E080E090E00E94F40260EA70E080E03A
:1001100090E00E94F40220937E0030937F00409391
:100120008000509381001092720010927300109220
:1001300074001092750016C08FEF0E943E018091EE
:10014000720090917300A0917400B09175000196B7
:10015000A11DB11D8093720090937300A093740051
:10016000B0937500409172005091730060917400DB
:100170007091750080917E0090917F00A091800029
:10018000B0918100481759076A077B07A8F22FE34F
:100190008DE093E0215080409040E1F700C00000E6
:1001A0000E9461010895CF93DF93CDB7DEB7299701
:1001B0000FB6F894DEBF0FBECDBF80E4898396E012
:1001C0009E831A828B831F8219861886CE01019620
:1001D0000E9403020E94650140E066E770E081E052
:1001E0000E943A020E94490029960FB6F894DEBF99
:1001F0000FBECDBFDF91CF91089588B3877F88BBB5
:1002000083ED90E30197F1F700C0000088B38860A8
:1002100088BB08958AB38F708ABB88B3846088BB1B
:1002200088B38D7F88BB0E94FD008AB38ABB88B3E8
:100230008B7F88BB0895CF93C82F8BB38F709C2F73
:10024000907F892B8BBB88B3897F88BB0E94FD0080
:1002500087EA91E60197F1F700C000002BB330E187
:10026000C39FC0011124922F9F70892B8BBB88B331
:10027000897F88BB0E94FD00CF910895CF93C82F3E
:100280008BB38F709C2F907F892B8BBB88B3826040
:1002900088BB88B38B7F88BB0E94FD002BB330E105
:1002A000C39FC0011124922F9F70892B8BBB88B3F1
:1002B000826088BB88B38B7F88BB0E94FD00CF9192
:1002C000089581E00E941B01089587E893E101975A
:1002D000F1F700C000000E940A0187B38E6087BB5F
:1002E00088B3817F88BB0E94FD0085EA9EE001976C
:1002F000F1F700C000000E9461018AB38ABB82E06E
:100300000E941B0188E20E941B0186E00E941B01E3
:1003100080E80E941B018FE00E941B01089581115B
:1003200007C0603168F480E8860F0E941B010895C1
:10033000813031F4603120F480EC860F0E941B0183
:1003400008950F931F93CF93DF93EC0121C0809109
:100350006C00803121F460E081E00E948F018E0109
:100360000F5F1F4F88810E943E0180916C008F5F5C
:1003700080936C0080916C00803248F081E00E9494
:100380001B0160E080E00E948F0110926C00E80188
:1003900088818111DCCFDF91CF911F910F9108955A
:1003A0000F931F93CF93DF93CDB7DEB727970FB689
:1003B000F894DEBF0FBECDBF9F938F937F936F9353
:1003C00088E690E09F938F938E010F5F1F4F1F93DE
:1003D0000F930E943003C8010E94A1010FB6F89448
:1003E000DEBF0FBECDBF27960FB6F894DEBF0FBE9F
:1003F000CDBFDF91CF911F910F9108950E94D3003F
:1004000080E090E00895CF93DF93EC0189E0FE0156
:10041000A2E8B0E001900D928A95E1F796B188814B
:10042000892B86B997B18981892B87B997B18A8140
:10043000892B87B996B18B81892B86B990B78C812E
:10044000892B80BF96B18D81892B86B996B18E811B
:10045000892B86B98E81883009F4789486B18068BA
:1004600086B98881811103C086B1806486B9DF9125
:10047000CF91089597B1907E97B997B1982B97B97E
:100480005AB321E030E0F90102C0EE0FFF1F8A9558
:10049000E2F7CF01809585238ABB8091820080346A
:1004A00019F486B1806486B9411102C0349BFECF35
:1004B0008091830081110BC024B185B1837090E0DD
:1004C000982F8827822BFB01918380830FC024B152
:1004D000229526952695237085B190E0880F991F67
:1004E000880F991F822BFB019183808386B18F7EB9
:1004F00086B908951F920F920FB60F9211242F9371
:100500003F934F935F936F937F938F939F93AF939B
:10051000BF93EF93FF93E0918900F0918A000995D2
:10052000FF91EF91BF91AF919F918F917F916F91CB
:100530005F914F913F912F910F900FBE0F901F90A1
:1005400018951F920F920FB60F9211242F933F937D
:100550004F935F936F937F938F939F93AF93BF93CB
:10056000EF93FF93E0918B00F0918C000995FF9140
:10057000EF91BF91AF919F918F917F916F915F911B
:100580004F913F912F910F900FBE0F901F90189594
:100590001F920F920FB60F9211242F933F934F93F8
:1005A0005F936F937F938F939F93AF93BF93EF93DB
:1005B000FF9380916D008F5F80936D00E0918B00C1
:1005C000F0918C000995FF91EF91BF91AF919F91B0
:1005D0008F917F916F915F914F913F912F910F90EC
:1005E0000FBE0F901F901895A1E21A2EAA1BBB1BDD
:1005F000FD010DC0AA1FBB1FEE1FFF1FA217B307EF
:10060000E407F50720F0A21BB30BE40BF50B661F04
:10061000771F881F991F1A9469F7609570958095C8
:1006200090959B01AC01BD01CF0108950E9421036B
:10063000A59F900DB49F900DA49F800D911D112436
:100640000895A29FB001B39FC001A39F700D811DAB
:100650001124911DB29F700D811D1124911D0895CB
:10066000AEE0B0E0E6E3F3E00C94F1050D891E89FD
:1006700086E08C831A8309838FEF9FE79E838D83A7
:10068000AE01475E5F4F6F89788DCE0101960E9463
:100690005203EF81F885E00FF11F10822E96E4E0FF
:1006A0000C940D06ABE0B0E0E8E5F3E00C94E30554
:1006B0006C017B018A01FC0117821682838181FF14
:1006C000CCC1CE0101963C01F6019381F70193FD67
:1006D000859193FF81917F01882309F4BAC1853206
:1006E00039F493FD859193FF81917F01853229F43F
:1006F000B60190E00E944905E7CF912C212C312CC6
:10070000FFE1F315D8F08B3279F038F4803279F0CC
:100710008332A1F4232D20611DC08D3261F080331E
:1007200069F4232D216016C0832D8260382EE32DBD
:10073000E4603E2E2AC0F32DF8601DC037FC2DC0AA
:1007400020ED280F2A3040F08E32B9F436FC81C1FA
:10075000232D2064322E19C036FE06C08AE0989EF2
:10076000200D1124922E11C0EAE02E9E200D11249E
:10077000222EF32DF0623F2E08C08C3621F4832DFB
:100780008068382E02C0883641F4F70193FD8591C8
:1007900093FF81917F018111B3CF982F9F7D955455
:1007A000933028F40C5F1F4F9FE399830DC083366D
:1007B00031F0833771F0833509F059C021C0F80159
:1007C000808189830E5F1F4F88248394912C53016D
:1007D00013C02801F2E04F0E511CF801A080B18037
:1007E00036FE03C0692D70E002C06FEF7FEFC501D8
:1007F0000E943E054C018201F32DFF773F2E16C06B
:10080000280122E0420E511CF801A080B18036FE82
:1008100003C0692D70E002C06FEF7FEFC5010E9439
:1008200033054C01F32DF0683F2E820133FC1BC0D1
:10083000822D90E088169906B0F4B60180E290E02F
:100840000E9449052A94F4CFF50137FC859137FEC3
:1008500081915F01B60190E00E94490521102A9420
:1008600021E0821A91088114910471F7E8C084365E
:1008700011F0893641F5F80137FE07C060817181BA
:10088000828193810C5F1F4F08C060817181072EA8
:10089000000C880B990B0E5F1F4FF32DFF763F2E38
:1008A00097FF09C090958095709561957F4F8F4F08
:1008B0009F4FF0683F2E2AE030E0A3010E9485059B
:1008C000882E861845C0853731F4232D2F7EB22E11
:1008D0002AE030E025C0932D997FB92E8F36C1F0E4
:1008E00018F4883579F0B5C0803719F0883721F0D1
:1008F000B0C0E92FE061BE2EB4FE0DC0FB2DF46048
:10090000BF2E09C034FE0AC0292F2660B22E06C0B1
:1009100028E030E005C020E130E002C020E132E014
:10092000F801B7FE07C060817181828193810C5FFD
:100930001F4F06C06081718180E090E00E5F1F4F05
:10094000A3010E948505882E8618FB2DFF773F2E78
:1009500036FE0DC0232D2E7FA22E891458F434FEAE
:100960000BC032FC09C0832D8E7EA82E05C0B82C8A
:10097000A32C03C0B82C01C0B92CA4FE0FC0FE01EB
:10098000E80DF11D8081803321F49A2D997EA92EE6
:1009900009C0A2FE06C0B394B39404C08A2D867821
:1009A00009F0B394A3FC11C0A0FE06C0B21488F4F1
:1009B000280C922C9B180EC0B21460F4B60180E291
:1009C00090E00E944905B394F7CFB21418F42B18A5
:1009D00002C0982C212CA4FE10C0B60180E390E048
:1009E0000E944905A2FE17C0A1FC03C088E790E061
:1009F00002C088E590E0B6010CC08A2D867859F0D7
:100A0000A1FE02C08BE201C080E2A7FC8DE2B6012C
:100A100090E00E944905891438F4B60180E390E023
:100A20000E9449059A94F7CF8A94F301E80DF11DCD
:100A30008081B60190E00E9449058110F5CF222007
:100A400009F442CEB60180E290E00E9449052A9462
:100A5000F6CFF6018681978102C08FEF9FEF2B962C
:100A6000E2E10C94FF05FC0105906150704001101B
:100A7000D8F7809590958E0F9F1F0895FC016150C7
:100A8000704001900110D8F7809590958E0F9F1FB0
:100A900008950F931F93CF93DF93FB01238121FDD3
:100AA00003C08FEF9FEF2CC022FF16C046815781F5
:100AB000248135814217530744F4A081B1819D01FF
:100AC0002F5F3F4F318320838C93268137812F5FA7
:100AD0003F4F3783268314C08B01EC01FB01008458
:100AE000F185E02D0995892BE1F6D80116968D91B7
:100AF0009C911797019617969C938E931697CE010B
:100B0000DF91CF911F910F910895FA01AA27283004
:100B100051F1203181F1E8946F936E7F6E5F7F4FCA
:100B20008F4F9F4FAF4FB1E03ED0B4E03CD0670F46
:100B3000781F891F9A1FA11D680F791F8A1F911D99
:100B4000A11D6A0F711D811D911DA11D20D009F4E9
:100B500068943F912AE0269F11243019305D31932B
:100B6000DEF6CF010895462F4770405D4193B3E014
:100B70000FD0C9F7F6CF462F4F70405D4A3318F0BB
:100B8000495D31FD4052419302D0A9F7EACFB4E06C
:100B9000A6959795879577956795BA95C9F7009724
:100BA0006105710508959B01AC010A2E06945795C5
:100BB000479537952795BA95C9F7620F731F841F1C
:100BC000951FA01D08952F923F924F925F926F92B2
:100BD0007F928F929F92AF92BF92CF92DF92EF92CD
:100BE000FF920F931F93CF93DF93CDB7DEB7CA1B4E
:100BF000DB0B0FB6F894DEBF0FBECDBF09942A8879
:100C0000398848885F846E847D848C849B84AA8420
:100C1000B984C884DF80EE80FD800C811B81AA81AD
:100C2000B981CE0FD11D0FB6F894DEBF0FBECDBF78
:080C3000ED010895F894FFCFD7
:0C0C380050657263203A20002564000023
:00000001FF
